{
  "config": {
    "chainId": 10002,
    "homesteadBlock": 0,
    "eip150Block": 0,
    "eip155Block": 0,
    "eip158Block": 0,
    "byzantiumBlock": 0,
    "constantinopleBlock": 0,
    "petersburgBlock": 0,
    "istanbulBlock": 0,
    "berlinBlock": 0,
    "qbft": {
      "epochlength": 30000,
      "blockperiodseconds": 5,
      "requesttimeoutseconds": 10,
      "validatorcontractaddress": "0x0000000000000000000000000000000000009999"
    }
  },
  "nonce": "0x0",
  "timestamp": "0x0",
  "gasLimit": "0x1fffffffffffff",
  "difficulty": "0x1",
  "mixHash": "0x63746963616c2062797a616e74696e65206661756c7420746f6c6572616e6365",
  "coinbase": "0x0000000000000000000000000000000000000000",
  "alloc": {
    "0x0000000000000000000000000000000000009999": {
      "code": "0x608060405234801561001057600080fd5b50600436106101425760003560e01c80637c3bf42d116100b8578063c3be1e5e1161007c578063c3be1e5e146103d2578063cffb80c1146103ee578063d9dae6391461041e578063e75235b81461043a578063facd743b14610458578063fd605f531461048857610142565b80637c3bf42d146103145780638b7bf3eb146103485780639c19207414610366578063b3e7b16314610396578063b7ab4db5146103b457610142565b80633ebffb911161010a5780633ebffb9114610228578063567687c6146102445780635e998e94146102745780637071688a14610292578063749511b1146102b057806378d46b6f146102e057610142565b8063043ce19a1461014757806314bfd6d01461017757806324d7806c146101a7578063309179f6146101d757806331ae450b1461020a575b600080fd5b610161600480360381019061015c9190612a06565b6104b8565b60405161016e9190612a7f565b60405180910390f35b610191600480360381019061018c9190612ac6565b61078d565b60405161019e9190612b02565b60405180910390f35b6101c160048036038101906101bc9190612b1d565b6107cc565b6040516101ce9190612b65565b60405180910390f35b6101f160048036038101906101ec9190612ac6565b6107ec565b6040516102019493929190612b80565b60405180910390f35b610212610856565b60405161021f9190612c83565b60405180910390f35b610242600480360381019061023d9190612ac6565b6108e4565b005b61025e60048036038101906102599190612ac6565b61097c565b60405161026b9190612c83565b60405180910390f35b61027c610a20565b6040516102899190612a7f565b60405180910390f35b61029a610a26565b6040516102a79190612a7f565b60405180910390f35b6102ca60048036038101906102c59190612b1d565b610a33565b6040516102d79190612a7f565b60405180910390f35b6102fa60048036038101906102f59190612ac6565b610cd2565b60405161030b959493929190612d35565b60405180910390f35b61032e60048036038101906103299190612b1d565b610dca565b60405161033f959493929190612d8f565b60405180910390f35b610350610f3d565b60405161035d9190612a7f565b60405180910390f35b610380600480360381019061037b9190612ac6565b610f49565b60405161038d9190612c83565b60405180910390f35b61039e610fed565b6040516103ab9190612a7f565b60405180910390f35b6103bc610ff3565b6040516103c99190612c83565b60405180910390f35b6103ec60048036038101906103e79190612df0565b611081565b005b61040860048036038101906104039190612b1d565b61139b565b6040516104159190612a7f565b60405180910390f35b61043860048036038101906104339190612ac6565b611612565b005b6104426116aa565b60405161044f9190612a7f565b60405180910390f35b610472600480360381019061046d9190612b1d565b6116e7565b60405161047f9190612b65565b60405180910390f35b6104a2600480360381019061049d9190612a06565b611707565b6040516104af9190612a7f565b60405180910390f35b6000600160003373ffffffffffffffffffffffffffffffffffffffff1673ffffffffffffffffffffffffffffffffffffffff16815260200190815260200160002060009054906101000a900460ff16610546576040517f08c379a000000000000000000000000000000000000000000000000000000000815260040161053d90612ebd565b60405180910390fd5b600460008573ffffffffffffffffffffffffffffffffffffffff1673ffffffffffffffffffffffffffffffffffffffff16815260200190815260200160002060040160009054906101000a900460ff166105d5576040517f08c379a00000000000000000000000000000000000000000000000000000000081526004016105cc90612f29565b60405180910390fd5b600360008573ffffffffffffffffffffffffffffffffffffffff1673ffffffffffffffffffffffffffffffffffffffff16815260200190815260200160002060009054906101000a900460ff1615610662576040517f08c379a000000000000000000000000000000000000000000000000000000000815260040161065990612f95565b60405180910390fd5b6007600081548092919061067590612fe4565b9190505590506000600860008381526020019081526020016000209050848160000160006101000a81548173ffffffffffffffffffffffffffffffffffffffff021916908373ffffffffffffffffffffffffffffffffffffffff16021790555060018160000160146101000a81548160ff0219169083151502179055508383826004019182610705929190613272565b5042816005018190555060008160030160006101000a81548160ff0219169083151502179055508473ffffffffffffffffffffffffffffffffffffffff16827f99a9453978db7a4776921d726ac9555b28ec48a38e0d70d543575e469115c46760016040516107749190612b65565b60405180910390a36107858261194c565b509392505050565b6000818154811061079d57600080fd5b906000526020600020016000915054906101000a900473ffffffffffffffffffffffffffffffffffffffff1681565b60016020528060005260406000206000915054906101000a900460ff1681565b60066020528060005260406000206000915090508060000160009054906101000a900473ffffffffffffffffffffffffffffffffffffffff16908060000160149054906101000a900460ff16908060030160009054906101000a900460ff16908060040154905084565b606060008054806020026020016040519081016040528092919081815260200182805480156108da57602002820191906000526020600020905b8160009054906101000a900473ffffffffffffffffffffffffffffffffffffffff1673ffffffffffffffffffffffffffffffffffffffff1681526020019060010190808311610890575b5050505050905090565b600160003373ffffffffffffffffffffffffffffffffffffffff1673ffffffffffffffffffffffffffffffffffffffff16815260200190815260200160002060009054906101000a900460ff16610970576040517f08c379a000000000000000000000000000000000000000000000000000000000815260040161096790612ebd565b60405180910390fd5b6109798161194c565b50565b606060066000838152602001908152602001600020600101805480602002602001604051908101604052809291908181526020018280548015610a1457602002820191906000526020600020905b8160009054906101000a900473ffffffffffffffffffffffffffffffffffffffff1673ffffffffffffffffffffffffffffffffffffffff16815260200190600101908083116109ca575b50505050509050919050565b60075481565b6000600280549050905090565b6000600160003373ffffffffffffffffffffffffffffffffffffffff1673ffffffffffffffffffffffffffffffffffffffff16815260200190815260200160002060009054906101000a900460ff16610ac1576040517f08c379a0000000000000000000000000000000000000000000000000000000008152600401610ab890612ebd565b60405180910390fd5b600073ffffffffffffffffffffffffffffffffffffffff168273ffffffffffffffffffffffffffffffffffffffff1603610b30576040517f08c379a0000000000000000000000000000000000000000000000000000000008152600401610b279061338e565b60405180910390fd5b600160008373ffffffffffffffffffffffffffffffffffffffff1673ffffffffffffffffffffffffffffffffffffffff16815260200190815260200160002060009054906101000a900460ff1615610bbd576040517f08c379a0000000000000000000000000000000000000000000000000000000008152600401610bb4906133fa565b60405180910390fd5b60056000815480929190610bd090612fe4565b9190505590506000600660008381526020019081526020016000209050828160000160006101000a81548173ffffffffffffffffffffffffffffffffffffffff021916908373ffffffffffffffffffffffffffffffffffffffff16021790555060018160000160146101000a81548160ff02191690831515021790555042816004018190555060008160030160006101000a81548160ff0219169083151502179055508273ffffffffffffffffffffffffffffffffffffffff16827f966679fa335999c25fd1535bab454f8d83fac689c0f29b98cf46791e15197bad6001604051610cbb9190612b65565b60405180910390a3610ccc82611b70565b50919050565b60086020528060005260406000206000915090508060000160009054906101000a900473ffffffffffffffffffffffffffffffffffffffff16908060000160149054906101000a900460ff16908060030160009054906101000a900460ff1690806004018054610d4190613095565b80601f0160208091040260200160405190810160405280929190818152602001828054610d6d90613095565b8015610dba5780601f10610d8f57610100808354040283529160200191610dba565b820191906000526020600020905b815481529060010190602001808311610d9d57829003601f168201915b5050505050908060050154905085565b60046020528060005260406000206000915090508060000160009054906101000a900473ffffffffffffffffffffffffffffffffffffffff1690806001018054610e1390613095565b80601f0160208091040260200160405190810160405280929190818152602001828054610e3f90613095565b8015610e8c5780601f10610e6157610100808354040283529160200191610e8c565b820191906000526020600020905b815481529060010190602001808311610e6f57829003601f168201915b505050505090806002018054610ea190613095565b80601f0160208091040260200160405190810160405280929190818152602001828054610ecd90613095565b8015610f1a5780601f10610eef57610100808354040283529160200191610f1a565b820191906000526020600020905b815481529060010190602001808311610efd57829003601f168201915b5050505050908060030154908060040160009054906101000a900460ff16905085565b60008080549050905090565b606060086000838152602001908152602001600020600101805480602002602001604051908101604052809291908181526020018280548015610fe157602002820191906000526020600020905b8160009054906101000a900473ffffffffffffffffffffffffffffffffffffffff1673ffffffffffffffffffffffffffffffffffffffff1681526020019060010190808311610f97575b50505050509050919050565b60055481565b6060600280548060200260200160405190810160405280929190818152602001828054801561107757602002820191906000526020600020905b8160009054906101000a900473ffffffffffffffffffffffffffffffffffffffff1673ffffffffffffffffffffffffffffffffffffffff168152602001906001019080831161102d575b5050505050905090565b600360003373ffffffffffffffffffffffffffffffffffffffff1673ffffffffffffffffffffffffffffffffffffffff16815260200190815260200160002060009054906101000a900460ff161561110e576040517f08c379a000000000000000000000000000000000000000000000000000000000815260040161110590612f95565b60405180910390fd5b600460003373ffffffffffffffffffffffffffffffffffffffff1673ffffffffffffffffffffffffffffffffffffffff16815260200190815260200160002060040160009054906101000a900460ff161561119e576040517f08c379a000000000000000000000000000000000000000000000000000000000815260040161119590613466565b60405180910390fd5b6040518060a001604052803373ffffffffffffffffffffffffffffffffffffffff16815260200185858080601f016020809104026020016040519081016040528093929190818152602001838380828437600081840152601f19601f82011690508083019250505050505050815260200183838080601f016020809104026020016040519081016040528093929190818152602001838380828437600081840152601f19601f82011690508083019250505050505050815260200142815260200160011515815250600460003373ffffffffffffffffffffffffffffffffffffffff1673ffffffffffffffffffffffffffffffffffffffff16815260200190815260200160002060008201518160000160006101000a81548173ffffffffffffffffffffffffffffffffffffffff021916908373ffffffffffffffffffffffffffffffffffffffff16021790555060208201518160010190816113019190613486565b5060408201518160020190816113179190613486565b506060820151816003015560808201518160040160006101000a81548160ff0219169083151502179055509050503373ffffffffffffffffffffffffffffffffffffffff167f4d954d97ff5f7e3ceb48557e63515f2b6d839b08e9cb52c79f8be5347e86ad55858560405161138d929190613594565b60405180910390a250505050565b6000600160003373ffffffffffffffffffffffffffffffffffffffff1673ffffffffffffffffffffffffffffffffffffffff16815260200190815260200160002060009054906101000a900460ff16611429576040517f08c379a000000000000000000000000000000000000000000000000000000000815260040161142090612ebd565b60405180910390fd5b600160008373ffffffffffffffffffffffffffffffffffffffff1673ffffffffffffffffffffffffffffffffffffffff16815260200190815260200160002060009054906101000a900460ff166114b5576040517f08c379a00000000000000000000000000000000000000000000000000000000081526004016114ac90613604565b60405180910390fd5b6001600080549050116114fd576040517f08c379a00000000000000000000000000000000000000000000000000000000081526004016114f490613670565b60405180910390fd5b6005600081548092919061151090612fe4565b9190505590506000600660008381526020019081526020016000209050828160000160006101000a81548173ffffffffffffffffffffffffffffffffffffffff021916908373ffffffffffffffffffffffffffffffffffffffff16021790555060008160000160146101000a81548160ff02191690831515021790555042816004018190555060008160030160006101000a81548160ff0219169083151502179055508273ffffffffffffffffffffffffffffffffffffffff16827f966679fa335999c25fd1535bab454f8d83fac689c0f29b98cf46791e15197bad60006040516115fb9190612b65565b60405180910390a361160c82611b70565b50919050565b600160003373ffffffffffffffffffffffffffffffffffffffff1673ffffffffffffffffffffffffffffffffffffffff16815260200190815260200160002060009054906101000a900460ff1661169e576040517f08c379a000000000000000000000000000000000000000000000000000000000815260040161169590612ebd565b60405180910390fd5b6116a781611b70565b50565b6000806000805490509050600081036116c75760009150506116e4565b60016002826116d691906136bf565b6116e091906136f0565b9150505b90565b60036020528060005260406000206000915054906101000a900460ff1681565b6000600160003373ffffffffffffffffffffffffffffffffffffffff1673ffffffffffffffffffffffffffffffffffffffff16815260200190815260200160002060009054906101000a900460ff16611795576040517f08c379a000000000000000000000000000000000000000000000000000000000815260040161178c90612ebd565b60405180910390fd5b600360008573ffffffffffffffffffffffffffffffffffffffff1673ffffffffffffffffffffffffffffffffffffffff16815260200190815260200160002060009054906101000a900460ff16611821576040517f08c379a000000000000000000000000000000000000000000000000000000000815260040161181890613770565b60405180910390fd5b6007600081548092919061183490612fe4565b9190505590506000600860008381526020019081526020016000209050848160000160006101000a81548173ffffffffffffffffffffffffffffffffffffffff021916908373ffffffffffffffffffffffffffffffffffffffff16021790555060008160000160146101000a81548160ff02191690831515021790555083838260040191826118c4929190613272565b5042816005018190555060008160030160006101000a81548160ff0219169083151502179055508473ffffffffffffffffffffffffffffffffffffffff16827f99a9453978db7a4776921d726ac9555b28ec48a38e0d70d543575e469115c46760006040516119339190612b65565b60405180910390a36119448261194c565b509392505050565b60006008600083815260200190815260200160002090508060030160009054906101000a900460ff16156119b5576040517f08c379a00000000000000000000000000000000000000000000000000000000081526004016119ac906137dc565b60405180910390fd5b8060020160003373ffffffffffffffffffffffffffffffffffffffff1673ffffffffffffffffffffffffffffffffffffffff16815260200190815260200160002060009054906101000a900460ff1615611a44576040517f08c379a0000000000000000000000000000000000000000000000000000000008152600401611a3b90613848565b60405180910390fd5b80600101339080600181540180825580915050600190039060005260206000200160009091909190916101000a81548173ffffffffffffffffffffffffffffffffffffffff021916908373ffffffffffffffffffffffffffffffffffffffff16021790555060018160020160003373ffffffffffffffffffffffffffffffffffffffff1673ffffffffffffffffffffffffffffffffffffffff16815260200190815260200160002060006101000a81548160ff0219169083151502179055503373ffffffffffffffffffffffffffffffffffffffff16827f8846ea2a63364a808ee2d91447d3d3060ccb1815f121af4dae662e71f505f8a860405160405180910390a36000611b516116aa565b905080826001018054905010611b6b57611b6a83611d93565b5b505050565b60006006600083815260200190815260200160002090508060030160009054906101000a900460ff1615611bd9576040517f08c379a0000000000000000000000000000000000000000000000000000000008152600401611bd0906137dc565b60405180910390fd5b8060020160003373ffffffffffffffffffffffffffffffffffffffff1673ffffffffffffffffffffffffffffffffffffffff16815260200190815260200160002060009054906101000a900460ff1615611c68576040517f08c379a0000000000000000000000000000000000000000000000000000000008152600401611c5f90613848565b60405180910390fd5b80600101339080600181540180825580915050600190039060005260206000200160009091909190916101000a81548173ffffffffffffffffffffffffffffffffffffffff021916908373ffffffffffffffffffffffffffffffffffffffff16021790555060018160020160003373ffffffffffffffffffffffffffffffffffffffff1673ffffffffffffffffffffffffffffffffffffffff16815260200190815260200160002060006101000a81548160ff0219169083151502179055503373ffffffffffffffffffffffffffffffffffffffff16827e86296fcd865a0c7481829148e2eb440cceedc80ee1411c1f379a0c3bf4aaf860405160405180910390a36000611d746116aa565b905080826001018054905010611d8e57611d8d836123b8565b5b505050565b60006008600083815260200190815260200160002090508060030160009054906101000a900460ff1615611dfc576040517f08c379a0000000000000000000000000000000000000000000000000000000008152600401611df3906137dc565b60405180910390fd5b6000611e066116aa565b90508082600101805490501015611e52576040517f08c379a0000000000000000000000000000000000000000000000000000000008152600401611e49906138b4565b60405180910390fd5b60018260030160006101000a81548160ff0219169083151502179055508160000160149054906101000a900460ff16156120745760028260000160009054906101000a900473ffffffffffffffffffffffffffffffffffffffff169080600181540180825580915050600190039060005260206000200160009091909190916101000a81548173ffffffffffffffffffffffffffffffffffffffff021916908373ffffffffffffffffffffffffffffffffffffffff1602179055506001600360008460000160009054906101000a900473ffffffffffffffffffffffffffffffffffffffff1673ffffffffffffffffffffffffffffffffffffffff1673ffffffffffffffffffffffffffffffffffffffff16815260200190815260200160002060006101000a81548160ff0219169083151502179055506000600460008460000160009054906101000a900473ffffffffffffffffffffffffffffffffffffffff1673ffffffffffffffffffffffffffffffffffffffff1673ffffffffffffffffffffffffffffffffffffffff16815260200190815260200160002060040160006101000a81548160ff0219169083151502179055508160000160009054906101000a900473ffffffffffffffffffffffffffffffffffffffff1673ffffffffffffffffffffffffffffffffffffffff167f6b872750794b9ce90f9678e8d33652e3c79a1bc2868bf145d74bb04e7da83af860405160405180910390a261234b565b6001600280549050116120bc576040517f08c379a00000000000000000000000000000000000000000000000000000000081526004016120b390613920565b60405180910390fd5b60005b600280549050811015612266578260000160009054906101000a900473ffffffffffffffffffffffffffffffffffffffff1673ffffffffffffffffffffffffffffffffffffffff166002828154811061211b5761211a613940565b5b9060005260206000200160009054906101000a900473ffffffffffffffffffffffffffffffffffffffff1673ffffffffffffffffffffffffffffffffffffffff16036122595760026001600280549050612175919061396f565b8154811061218657612185613940565b5b9060005260206000200160009054906101000a900473ffffffffffffffffffffffffffffffffffffffff16600282815481106121c5576121c4613940565b5b9060005260206000200160006101000a81548173ffffffffffffffffffffffffffffffffffffffff021916908373ffffffffffffffffffffffffffffffffffffffff160217905550600280548061221f5761221e6139a3565b5b6001900381819060005260206000200160006101000a81549073ffffffffffffffffffffffffffffffffffffffff02191690559055612266565b80806001019150506120bf565b506000600360008460000160009054906101000a900473ffffffffffffffffffffffffffffffffffffffff1673ffffffffffffffffffffffffffffffffffffffff1673ffffffffffffffffffffffffffffffffffffffff16815260200190815260200160002060006101000a81548160ff0219169083151502179055508160000160009054906101000a900473ffffffffffffffffffffffffffffffffffffffff1673ffffffffffffffffffffffffffffffffffffffff167fe1434e25d6611e0db941968fdc97811c982ac1602e951637d206f5fdda9dd8f160405160405180910390a25b8160000160009054906101000a900473ffffffffffffffffffffffffffffffffffffffff1673ffffffffffffffffffffffffffffffffffffffff16837faa7d5b36b1e0c99cab5c4320471151b5f60b6702fd392b465595d7a0a264180760405160405180910390a3505050565b60006006600083815260200190815260200160002090508060030160009054906101000a900460ff1615612421576040517f08c379a0000000000000000000000000000000000000000000000000000000008152600401612418906137dc565b60405180910390fd5b600061242b6116aa565b90508082600101805490501015612477576040517f08c379a000000000000000000000000000000000000000000000000000000000815260040161246e906138b4565b60405180910390fd5b60018260030160006101000a81548160ff0219169083151502179055508160000160149054906101000a900460ff161561262b5760008260000160009054906101000a900473ffffffffffffffffffffffffffffffffffffffff169080600181540180825580915050600190039060005260206000200160009091909190916101000a81548173ffffffffffffffffffffffffffffffffffffffff021916908373ffffffffffffffffffffffffffffffffffffffff16021790555060018060008460000160009054906101000a900473ffffffffffffffffffffffffffffffffffffffff1673ffffffffffffffffffffffffffffffffffffffff1673ffffffffffffffffffffffffffffffffffffffff16815260200190815260200160002060006101000a81548160ff0219169083151502179055508160000160009054906101000a900473ffffffffffffffffffffffffffffffffffffffff1673ffffffffffffffffffffffffffffffffffffffff167f723c2b747529ca7f5eb53a74808f4a8b9bf264f0fc450fd904900151da74548a6126116116aa565b60405161261e9190612a7f565b60405180910390a26128cc565b60005b6000805490508110156127d5578260000160009054906101000a900473ffffffffffffffffffffffffffffffffffffffff1673ffffffffffffffffffffffffffffffffffffffff166000828154811061268a57612689613940565b5b9060005260206000200160009054906101000a900473ffffffffffffffffffffffffffffffffffffffff1673ffffffffffffffffffffffffffffffffffffffff16036127c857600060016000805490506126e4919061396f565b815481106126f5576126f4613940565b5b9060005260206000200160009054906101000a900473ffffffffffffffffffffffffffffffffffffffff166000828154811061273457612733613940565b5b9060005260206000200160006101000a81548173ffffffffffffffffffffffffffffffffffffffff021916908373ffffffffffffffffffffffffffffffffffffffff160217905550600080548061278e5761278d6139a3565b5b6001900381819060005260206000200160006101000a81549073ffffffffffffffffffffffffffffffffffffffff021916905590556127d5565b808060010191505061262e565b506000600160008460000160009054906101000a900473ffffffffffffffffffffffffffffffffffffffff1673ffffffffffffffffffffffffffffffffffffffff1673ffffffffffffffffffffffffffffffffffffffff16815260200190815260200160002060006101000a81548160ff0219169083151502179055508160000160009054906101000a900473ffffffffffffffffffffffffffffffffffffffff1673ffffffffffffffffffffffffffffffffffffffff167fa0726c73cf6ad18ddb855ba65d1ddd4d7fd37d320f4e52f6b154c13d386f5fd96128b66116aa565b6040516128c39190612a7f565b60405180910390a25b8160000160009054906101000a900473ffffffffffffffffffffffffffffffffffffffff1673ffffffffffffffffffffffffffffffffffffffff16837fff9570ddbb56eaadb90efbf8535721fb9e257c518a8f9fcb3dfcd42b9837c73160405160405180910390a3505050565b600080fd5b600080fd5b600073ffffffffffffffffffffffffffffffffffffffff82169050919050565b600061296e82612943565b9050919050565b61297e81612963565b811461298957600080fd5b50565b60008135905061299b81612975565b92915050565b600080fd5b600080fd5b600080fd5b60008083601f8401126129c6576129c56129a1565b5b8235905067ffffffffffffffff8111156129e3576129e26129a6565b5b6020830191508360018202830111156129ff576129fe6129ab565b5b9250929050565b600080600060408486031215612a1f57612a1e612939565b5b6000612a2d8682870161298c565b935050602084013567ffffffffffffffff811115612a4e57612a4d61293e565b5b612a5a868287016129b0565b92509250509250925092565b6000819050919050565b612a7981612a66565b82525050565b6000602082019050612a946000830184612a70565b92915050565b612aa381612a66565b8114612aae57600080fd5b50565b600081359050612ac081612a9a565b92915050565b600060208284031215612adc57612adb612939565b5b6000612aea84828501612ab1565b91505092915050565b612afc81612963565b82525050565b6000602082019050612b176000830184612af3565b92915050565b600060208284031215612b3357612b32612939565b5b6000612b418482850161298c565b91505092915050565b60008115159050919050565b612b5f81612b4a565b82525050565b6000602082019050612b7a6000830184612b56565b92915050565b6000608082019050612b956000830187612af3565b612ba26020830186612b56565b612baf6040830185612b56565b612bbc6060830184612a70565b95945050505050565b600081519050919050565b600082825260208201905092915050565b6000819050602082019050919050565b612bfa81612963565b82525050565b6000612c0c8383612bf1565b60208301905092915050565b6000602082019050919050565b6000612c3082612bc5565b612c3a8185612bd0565b9350612c4583612be1565b8060005b83811015612c76578151612c5d8882612c00565b9750612c6883612c18565b925050600181019050612c49565b5085935050505092915050565b60006020820190508181036000830152612c9d8184612c25565b905092915050565b600081519050919050565b600082825260208201905092915050565b60005b83811015612cdf578082015181840152602081019050612cc4565b60008484015250505050565b6000601f19601f8301169050919050565b6000612d0782612ca5565b612d118185612cb0565b9350612d21818560208601612cc1565b612d2a81612ceb565b840191505092915050565b600060a082019050612d4a6000830188612af3565b612d576020830187612b56565b612d646040830186612b56565b8181036060830152612d768185612cfc565b9050612d856080830184612a70565b9695505050505050565b600060a082019050612da46000830188612af3565b8181036020830152612db68187612cfc565b90508181036040830152612dca8186612cfc565b9050612dd96060830185612a70565b612de66080830184612b56565b9695505050505050565b60008060008060408587031215612e0a57612e09612939565b5b600085013567ffffffffffffffff811115612e2857612e2761293e565b5b612e34878288016129b0565b9450945050602085013567ffffffffffffffff811115612e5757612e5661293e565b5b612e63878288016129b0565b925092505092959194509250565b7f4f6e6c792061646d696e00000000000000000000000000000000000000000000600082015250565b6000612ea7600a83612cb0565b9150612eb282612e71565b602082019050919050565b60006020820190508181036000830152612ed681612e9a565b9050919050565b7f4e6f2070656e64696e67206170706c69636174696f6e00000000000000000000600082015250565b6000612f13601683612cb0565b9150612f1e82612edd565b602082019050919050565b60006020820190508181036000830152612f4281612f06565b9050919050565b7f416c72656164792076616c696461746f72000000000000000000000000000000600082015250565b6000612f7f601183612cb0565b9150612f8a82612f49565b602082019050919050565b60006020820190508181036000830152612fae81612f72565b9050919050565b7f4e487b7100000000000000000000000000000000000000000000000000000000600052601160045260246000fd5b6000612fef82612a66565b91507fffffffffffffffffffffffffffffffffffffffffffffffffffffffffffffffff820361302157613020612fb5565b5b600182019050919050565b600082905092915050565b7f4e487b7100000000000000000000000000000000000000000000000000000000600052604160045260246000fd5b7f4e487b7100000000000000000000000000000000000000000000000000000000600052602260045260246000fd5b600060028204905060018216806130ad57607f821691505b6020821081036130c0576130bf613066565b5b50919050565b60008190508160005260206000209050919050565b60006020601f8301049050919050565b600082821b905092915050565b6000600883026131287fffffffffffffffffffffffffffffffffffffffffffffffffffffffffffffffff826130eb565b61313286836130eb565b95508019841693508086168417925050509392505050565b6000819050919050565b600061316f61316a61316584612a66565b61314a565b612a66565b9050919050565b6000819050919050565b61318983613154565b61319d61319582613176565b8484546130f8565b825550505050565b600090565b6131b26131a5565b6131bd818484613180565b505050565b5b818110156131e1576131d66000826131aa565b6001810190506131c3565b5050565b601f821115613226576131f7816130c6565b613200846130db565b8101602085101561320f578190505b61322361321b856130db565b8301826131c2565b50505b505050565b600082821c905092915050565b60006132496000198460080261322b565b1980831691505092915050565b60006132628383613238565b9150826002028217905092915050565b61327c838361302c565b67ffffffffffffffff81111561329557613294613037565b5b61329f8254613095565b6132aa8282856131e5565b6000601f8311600181146132d957600084156132c7578287013590505b6132d18582613256565b865550613339565b601f1984166132e7866130c6565b60005b8281101561330f578489013582556001820191506020850194506020810190506132ea565b8683101561332c5784890135613328601f891682613238565b8355505b6001600288020188555050505b50505050505050565b7f496e76616c696420616464726573730000000000000000000000000000000000600082015250565b6000613378600f83612cb0565b915061338382613342565b602082019050919050565b600060208201905081810360008301526133a78161336b565b9050919050565b7f416c72656164792061646d696e00000000000000000000000000000000000000600082015250565b60006133e4600d83612cb0565b91506133ef826133ae565b602082019050919050565b60006020820190508181036000830152613413816133d7565b9050919050565b7f4170706c69636174696f6e2070656e64696e6700000000000000000000000000600082015250565b6000613450601383612cb0565b915061345b8261341a565b602082019050919050565b6000602082019050818103600083015261347f81613443565b9050919050565b61348f82612ca5565b67ffffffffffffffff8111156134a8576134a7613037565b5b6134b28254613095565b6134bd8282856131e5565b600060209050601f8311600181146134f057600084156134de578287015190505b6134e88582613256565b865550613550565b601f1984166134fe866130c6565b60005b8281101561352657848901518255600182019150602085019450602081019050613501565b86831015613543578489015161353f601f891682613238565b8355505b6001600288020188555050505b505050505050565b82818337600083830152505050565b60006135738385612cb0565b9350613580838584613558565b61358983612ceb565b840190509392505050565b600060208201905081810360008301526135af818486613567565b90509392505050565b7f4e6f7420616e2061646d696e0000000000000000000000000000000000000000600082015250565b60006135ee600c83612cb0565b91506135f9826135b8565b602082019050919050565b6000602082019050818103600083015261361d816135e1565b9050919050565b7f43616e6e6f742072656d6f7665206c6173742061646d696e0000000000000000600082015250565b600061365a601883612cb0565b915061366582613624565b602082019050919050565b600060208201905081810360008301526136898161364d565b9050919050565b7f4e487b7100000000000000000000000000000000000000000000000000000000600052601260045260246000fd5b60006136ca82612a66565b91506136d583612a66565b9250826136e5576136e4613690565b5b828204905092915050565b60006136fb82612a66565b915061370683612a66565b925082820190508082111561371e5761371d612fb5565b5b92915050565b7f4e6f7420612076616c696461746f720000000000000000000000000000000000600082015250565b600061375a600f83612cb0565b915061376582613724565b602082019050919050565b600060208201905081810360008301526137898161374d565b9050919050565b7f416c726561647920657865637574656400000000000000000000000000000000600082015250565b60006137c6601083612cb0565b91506137d182613790565b602082019050919050565b600060208201905081810360008301526137f5816137b9565b9050919050565b7f416c7265616479207369676e6564000000000000000000000000000000000000600082015250565b6000613832600e83612cb0565b915061383d826137fc565b602082019050919050565b6000602082019050818103600083015261386181613825565b9050919050565b7f496e73756666696369656e74207369676e617475726573000000000000000000600082015250565b600061389e601783612cb0565b91506138a982613868565b602082019050919050565b600060208201905081810360008301526138cd81613891565b9050919050565b7f43616e6e6f742072656d6f7665206c6173742076616c696461746f7200000000600082015250565b600061390a601c83612cb0565b9150613915826138d4565b602082019050919050565b60006020820190508181036000830152613939816138fd565b9050919050565b7f4e487b7100000000000000000000000000000000000000000000000000000000600052603260045260246000fd5b600061397a82612a66565b915061398583612a66565b925082820390508181111561399d5761399c612fb5565b5b92915050565b7f4e487b7100000000000000000000000000000000000000000000000000000000600052603160045260246000fdfea26469706673582212204313a757b3fdfdeb40f3ada13416d9ac6404d1f9312361ab20077596683b293764736f6c63430008180033",
      "storage": {
        "0x0000000000000000000000000000000000000000000000000000000000000000": "0x0000000000000000000000000000000000000000000000000000000000000001",
        "0x0000000000000000000000000000000000000000000000000000000000000002": "0x0000000000000000000000000000000000000000000000000000000000000003",
        "0x24812181ff5c0bca7d43e4b21aeb7c6a7e21d8417e4b8ca3820c754945ff9f34": "0x0000000000000000000000000000000000000000000000000000000000000001",
        "0x5092047f910883fa600255db1126c6da734f7cb891cdaff25f394fc0e3f90f4f": "0x0000000000000000000000000000000000000000000000000000000000000001",
        "0x5762d984f4722d52985f6ea4fc7d75fe711d2b98f697d22e97c60ba72ca5d5b0": "0x0000000000000000000000000000000000000000000000000000000000000001",
        "0x3adbec6d45f54b7ee5538967693a55675219fc4d9125249b9340e96fe5c6246b": "0x0000000000000000000000000000000000000000000000000000000000000001",
        "0x290decd9548b62a8d60345a988386fc84ba6bc95484008f6362f93160ef3e563": "0x000000000000000000000000a5D07a52f8f290Fe82657Ce306fF4CB07C5B4597",
        "0x405787fa12a823e0f2b7631cc41b3ba8828b3321ca811111fa75cd3aa3bb5ace": "0x000000000000000000000000a5D07a52f8f290Fe82657Ce306fF4CB07C5B4597",
        "0x405787fa12a823e0f2b7631cc41b3ba8828b3321ca811111fa75cd3aa3bb5acf": "0x0000000000000000000000009315eEac67b874B52e4A38D4BfBcF6FD596B600b",
        "0x405787fa12a823e0f2b7631cc41b3ba8828b3321ca811111fa75cd3aa3bb5ad0": "0x000000000000000000000000b659a478281A82865f6f015EE0feFE06FdE73c07"
      }
    },
    "0xa5D07a52f8f290Fe82657Ce306fF4CB07C5B4597": {
      "balance": "0x200000000000000000000000000000000000000000000000000000000000000"
    }
  },
  "extraData": "0xf865a00000000000000000000000000000000000000000000000000000000000000000f83f94a5d07a52f8f290fe82657ce306ff4cb07c5b4597949315eeac67b874b52e4a38d4bfbcf6fd596b600b94b659a478281a82865f6f015ee0fefe06fde73c07c080c0"
}